:020000040800F2
:1000000000000220F15300086D5300086F530008F0
:100010007153000873530008755300080000000076
:1000200000000000000000000000000077530008FE
:1000300079530008000000007B5300087D5300083E
:10004000415400084154000841540008415400083C
:10005000415400084154000841540008415400082C
:10006000415400084154000841540008415400081C
:10007000415400084154000841540008415400080C
:100080004154000841540008415400080000000099
:1000900000000000000000000000000041540008C3
:1000A00041540008415400084154000841540008DC
:1000B0004154000841540008415400088553000889
:1000C0004154000895530008415400084154000869
:1000D0004154000841540008415400080000000049
:1000E0004154000841540008415400080000000039
:1000F0000000000000000000000000004154000863
:100100000000000041540008415400084154000818
:1001100000000000000000000000000000000000DF
:10012000415400084154000841540008415400085B
:100130004154000800000000000000000000000022
:100140000000000000000000000000004154000812
:10015000415400084154000841540008415400082B
:100160004154000841540008000000000000000055
:10017000000000000000000000000000000000007F
:1001800000000000415400080000000000000000D2
:0801900041540008415400082D
:1001A00010B5054C237833B9044B13B10448AFF3B1
:1001B00000800123237010BDE0010020000000003A
:1001C0003875000808B5034B1BB103490348AFF36A
:1001D000008008BD00000000E40100203875000820
:1001E00081F0004102E000BF83F0004330B54FEAE8
:1001F00041044FEA430594EA050F08BF90EA020F55
:100200001FBF54EA000C55EA020C7FEA645C7FEAE7
:10021000655C00F0E2804FEA5454D4EB5555B8BF0A
:100220006D420CDD2C4480EA020281EA030382EA7B
:10023000000083EA010180EA020281EA0303362D0D
:1002400088BF30BD11F0004F4FEA01314FF4801CE0
:100250004CEA113102D0404261EB410113F0004FF2
:100260004FEA03334CEA133302D0524263EB4303A9
:1002700094EA050F00F0A780A4F10104D5F1200E47
:100280000DDB02FA0EFC22FA05F2801841F10001A2
:1002900003FA0EF2801843FA05F359410EE0A5F176
:1002A00020050EF1200E012A03FA0EFC28BF4CF0A7
:1002B000020C43FA05F3C01851EBE37101F000455D
:1002C00007D54FF0000EDCF1000C7EEB00006EEB6A
:1002D0000101B1F5801F1BD3B1F5001F0CD34908F4
:1002E0005FEA30004FEA3C0C04F101044FEA44524B
:1002F00012F5800F80F09A80BCF1004F08BF5FEAD2
:10030000500C50F1000041EB045141EA050130BDB1
:100310005FEA4C0C404141EB010111F4801FA4F154
:100320000104E9D191F0000F04BF01460020B1FAA9
:1003300081F308BF2033A3F10B03B3F120020CDAE1
:100340000C3208DD02F1140CC2F10C0201FA0CF0BF
:1003500021FA02F10CE002F11402D8BFC2F1200C24
:1003600001FA02F120FA0CFCDCBF41EA0C019040DA
:10037000E41AA2BF01EB0451294330BD6FEA040423
:100380001F3C1CDA0C340EDC04F11404C4F120020E
:1003900020FA04F001FA02F340EA030021FA04F320
:1003A00045EA030130BDC4F10C04C4F1200220FA77
:1003B00002F001FA04F340EA0300294630BD21FAB5
:1003C00004F0294630BD94F0000F83F4801306BF7B
:1003D00081F480110134013D4EE77FEA645C18BF6F
:1003E0007FEA655C29D094EA050F08BF90EA020F06
:1003F00005D054EA000C04BF1946104630BD91EAFE
:10040000030F1EBF0021002030BD5FEA545C05D100
:100410004000494128BF41F0004130BD14F580043F
:100420003CBF01F5801130BD01F0004545F0FE41B3
:1004300041F470014FF0000030BD7FEA645C1ABFE8
:10044000194610467FEA655C1CBF0B46024650EA1F
:10045000013406BF52EA033591EA030F41F400214B
:1004600030BD00BF90F0000F04BF0021704730B5D1
:100470004FF4806404F132044FF000054FF00001A6
:1004800050E700BF90F0000F04BF0021704730B567
:100490004FF4806404F1320410F0004548BF40423C
:1004A0004FF000013EE700BF42004FEAE2014FEA91
:1004B00031014FEA02701FBF12F07F4393F07F4F6C
:1004C00081F06051704732F07F4208BF704793F06F
:1004D0007F4F04BF41F40021704730B54FF4607482
:1004E00001F0004521F000411CE700BF50EA010285
:1004F00008BF704730B54FF000050AE050EA01022E
:1005000008BF704730B511F0004502D5404261EB9D
:1005100041014FF4806404F132045FEA915C3FF4DE
:10052000D8AE4FF003025FEADC0C18BF03325FEA7B
:10053000DC0C18BF033202EBDC02C2F1200300FA2C
:1005400003FC20FA02F001FA03FE40EA0E0021FA51
:1005500002F11444BDE600BF70B54FF0FF0C4CF43F
:10056000E06C1CEA11541DBF1CEA135594EA0C0FF1
:1005700095EA0C0F00F0DEF82C4481EA030621EA2C
:100580004C5123EA4C5350EA013518BF52EA033567
:1005900041F4801143F4801338D0A0FB02CE4FF019
:1005A0000005E1FB02E506F00042E0FB03E54FF049
:1005B0000006E1FB03569CF0000F18BF4EF0010E41
:1005C000A4F1FF04B6F5007F64F5407404D25FEA3D
:1005D0004E0E6D4146EB060642EAC62141EA5551F0
:1005E0004FEAC52040EA5E504FEACE2EB4F1FD0C32
:1005F00088BFBCF5E06F1ED8BEF1004F08BF5FEAB0
:10060000500E50F1000041EB045170BD06F0004661
:1006100046EA010140EA020081EA0301B4EB5C040E
:10062000C2BFD4EB0C0541EA045170BD41F4801106
:100630004FF0000E013C00F3AB8014F1360FDEBF2B
:10064000002001F0004170BDC4F10004203C35DA07
:100650000C341BDC04F11404C4F1200500FA05F38A
:1006600020FA04F001FA05F240EA020001F000422B
:1006700021F0004110EBD37021FA04F642EB0601A1
:100680005EEA430E08BF20EAD37070BDC4F10C04CB
:10069000C4F1200500FA04F320FA05F001FA04F28F
:1006A00040EA020001F0004110EBD37041F100017B
:1006B0005EEA430E08BF20EAD37070BDC4F1200586
:1006C00000FA05F24EEA020E20FA04F301FA05F2EE
:1006D00043EA020321FA04F001F0004121FA04F296
:1006E00020EA020000EBD3705EEA430E08BF20EA66
:1006F000D37070BD94F0000F0FD101F000464000A0
:1007000041EB010111F4801F08BF013CF7D041EA21
:10071000060195F0000F18BF704703F00046520025
:1007200043EB030313F4801F08BF013DF7D043EAF6
:100730000603704794EA0C0F0CEA135518BF95EAAC
:100740000C0F0CD050EA410618BF52EA4306D1D133
:1007500081EA030101F000414FF0000070BD50EA52
:10076000410606BF1046194652EA430619D094EADC
:100770000C0F02D150EA013613D195EA0C0F05D1C6
:1007800052EA03361CBF104619460AD181EA03011A
:1007900001F0004141F0FE4141F470014FF00000D2
:1007A00070BD41F0FE4141F4780170BD70B54FF06D
:1007B000FF0C4CF4E06C1CEA11541DBF1CEA1355ED
:1007C00094EA0C0F95EA0C0F00F0A7F8A4EB0504CF
:1007D00081EA030E52EA03354FEA013100F08880C6
:1007E0004FEA03334FF0805545EA131343EA12638F
:1007F0004FEA022245EA111545EA10654FEA002644
:100800000EF000419D4208BF964244F1FD0404F5FC
:10081000407402D25B084FEA3202B61A65EB030558
:100820005B084FEA32024FF480104FF4002CB6EB15
:10083000020E75EB030E22BFB61A754640EA0C0095
:100840005B084FEA3202B6EB020E75EB030E22BFD5
:10085000B61A754640EA5C005B084FEA3202B6EB16
:10086000020E75EB030E22BFB61A754640EA9C00D5
:100870005B084FEA3202B6EB020E75EB030E22BFA5
:10088000B61A754640EADC0055EA060E18D04FEA63
:10089000051545EA16754FEA06164FEAC30343EA03
:1008A00052734FEAC2025FEA1C1CC0D111F4801FD0
:1008B0000BD141EA00014FF000004FF0004CB6E7C9
:1008C00011F4801F04BF01430020B4F1FD0C88BF68
:1008D000BCF5E06F3FF6AFAEB5EB030C04BFB6EB73
:1008E000020C5FEA500C50F1000041EB045170BD66
:1008F0000EF0004E4EEA113114EB5C04C2BFD4EB93
:100900000C0541EA045170BD41F480114FF0000E16
:10091000013C90E645EA060E8DE60CEA135594EA92
:100920000C0F08BF95EA0C0F3FF43BAF94EA0C0F95
:100930000AD150EA01347FF434AF95EA0C0F7FF40A
:1009400025AF104619462CE795EA0C0F06D152EA5E
:1009500003353FF4FDAE1046194622E750EA410642
:1009600018BF52EA43067FF4C5AE50EA41047FF453
:100970000DAF52EA43057FF4EBAE12E753B94AB923
:10098000002908BF00281CBF4FF0FF314FF0FF3097
:1009900000F072B9ADF1080C6DE904CE00F006F874
:1009A000DDF804E0DDE9022304B070472DE9F047EB
:1009B000089E04468846002B4BD18A42154667D9CB
:1009C000B2FA82F24AB1C2F1200701FA02F320FA28
:1009D00007F7954047EA030894404FEA154E230C69
:1009E000B8FBFEF71FFA85FC0EFB178843EA0843A5
:1009F00007FB0CF1994209D9EB1807F1FF3080F0A1
:100A00001B81994240F21881023F2B445B1AA4B229
:100A1000B3FBFEF00EFB103344EA034400FB0CFC76
:100A2000A44509D92C1900F1FF3380F00781A445B2
:100A300040F2048102382C4440EA0740A4EB0C0445
:100A400000271EB1D4400023C6E900433946BDE863
:100A5000F0878B4209D9002E00F0EB800027C6E911
:100A6000000138463946BDE8F087B3FA83F7002F16
:100A700047D18B4202D3824200F2FA80841A61EBA2
:100A8000030301209846002EE0D0C6E90048DDE7C8
:100A900002B9FFDEB2FA82F2002A40F08F80491BD1
:100AA0004FEA154E1FFA85F80127B1FBFEFC230C17
:100AB0000EFB1C1143EA014308FB0CF1994207D9D4
:100AC000EB180CF1FF3002D2994200F2CD8084463F
:100AD000591AA3B2B1FBFEF00EFB101443EA044412
:100AE00008FB00F8A04507D92C1900F1FF3302D20A
:100AF000A04500F2B6801846A4EB080440EA0C407A
:100B00009FE7C7F1200CBB4022FA0CFE4EEA030E11
:100B100001FA07F420FA0CF521FA0CF34FEA1E480B
:100B20002543B3FBF8F92C0C08FB19331FFA8EFA96
:100B300044EA034309FB0AF49C4202FA07F200FA72
:100B400007F10BD91EEB030309F1FF3080F087801A
:100B50009C4240F28480A9F1020973441B1BADB290
:100B6000B3FBF8F008FB103345EA034400FB0AFA34
:100B7000A24508D91EEB040400F1FF336BD2A24555
:100B800069D90238744440EA0940A0FB0289A4EB09
:100B90000A044C45C2464B4654D351D0002E69D06E
:100BA000B1EB0A0564EB030404FA0CFCFD40FC40C5
:100BB0004CEA0505C6E90054002747E7C2F12003C7
:100BC00020FA03F7954001FA02F021FA03F34FEA05
:100BD000154E3843010CB3FBFEF71FFA85F80EFBE8
:100BE000173341EA034107FB08F38B4204FA02F48E
:100BF00007D9691807F1FF3C2FD28B422DD9023F4C
:100C00002944CB1A81B2B3FBFEF00EFB103341EA4C
:100C1000034100FB08F38B4207D9691800F1FF3C40
:100C200017D28B4215D902382944C91A40EA07471E
:100C30003BE73746304609E70746E7E61846FBE656
:100C40004145ABD2B8EB020A69EB0E0201381346FC
:100C5000A4E76046E9E7184695E76746D1E781468D
:100C60007CE702382C4447E7ACF1020C2B442FE719
:100C7000384608E73746E9E6704700BF034613F8F1
:100C8000012B002AFBD1181A013870470000000020
:100C900001F0FF01102A2BDB10F0070F08D010F82D
:100CA000013B013A8B422DD010F0070F42B3F6D131
:100CB000F0B441EA012141EA014122F007047FF04A
:100CC00000070023F0E80256083C85EA010586EAA1
:100CD000010685FA47F5A3FA87F586FA47F6A5FADD
:100CE00087F68EB9EED1F0BC01F0FF0102F00702E9
:100CF00032B110F8013B013A83EA010313B1F8D194
:100D00000020704701387047002D06BF3546033874
:100D1000073815F0010F07D1013015F4807F02BFAD
:100D2000013015F4C03F0130F0BC0138704700BFFE
:100D30004FF0FF3C06E000BF4FF0010C02E000BFA7
:100D40004FF0010C4DF804CD4FEA410C7FEA6C5C8A
:100D50004FEA430C18BF7FEA6C5C1BD001B050EA2D
:100D6000410C0CBF52EA430C91EA030F02BF90EA18
:100D7000020F0020704710F1000F91EA030F58BFD7
:100D8000994208BF90422CBFD8176FEAE37040F039
:100D9000010070474FEA410C7FEA6C5C02D150EAD7
:100DA000013C07D14FEA430C7FEA6C5CD6D152EA92
:100DB000033CD3D05DF8040B704700BF8446104657
:100DC00062468C461946634600E000BF01B5FFF756
:100DD000B7FF002848BF10F1000F01BD4DF808ED26
:100DE000FFF7F4FF0CBF012000205DF808FB00BFF7
:100DF0004DF808EDFFF7EAFF34BF012000205DF851
:100E000008FB00BF4DF808EDFFF7E0FF94BF01209D
:100E100000205DF808FB00BF4DF808EDFFF7CEFF9E
:100E200094BF012000205DF808FB00BF4DF808EDDD
:100E3000FFF7C4FF34BF012000205DF808FB00BFAE
:100E40004FEA410C7FEA6C5C02D150EA013C0AD1C6
:100E50004FEA430C7FEA6C5C02D152EA033C02D1B8
:100E60004FF0000070474FF0010070474FEA410219
:100E700012F5001215D211D56FF47873B3EB6252EC
:100E800012D94FEAC12343F0004343EA505311F013
:100E9000004F23FA02F018BF404270474FF00000A5
:100EA000704750EA013005D111F0004008BF6FF0E3
:100EB000004070474FF00000704700BF10B5044677
:100EC0000E4B18784FF47A73B3FBF0F30C4A1068AA
:100ED000B0FBF3F000F034FA68B90F2C01D901200F
:100EE0000AE0002221464FF0FF3000F0E9F9034B01
:100EF0005C60002000E0012010BD00BF0000002069
:100F00000C00002008B50B4B1A6842F400721A60FE
:100F10001A6842F480621A601A6842F480721A6099
:100F2000032000F0BBF90020FFF7C8FF03F0D8FF53
:100F3000002008BD003C0240034A1168034B1B78A7
:100F40000B441360704700BFA00600200000002083
:100F5000014B1868704700BFA006002038B5044652
:100F6000FFF7F6FF0546B4F1FF3F02D0044B1B78B4
:100F70001C44FFF7EDFF401BA042FAD338BD00BF71
:100F800000000020494B5A6822F440325A605A68E7
:100F900041680A435A600268536823F480735360BF
:100FA00002685368016943EA012353600268536889
:100FB00023F0407353600268536881680B435360A9
:100FC0000268936823F40063936002689368C168C1
:100FD0000B439360826A364B9A4249D00268936809
:100FE00023F07063936002689368816A0B43936097
:100FF0000268936823F04053936002689368C16A63
:101000000B4393600268936823F0020393600268C5
:101010009368816943EA41039360036A002B32D1EC
:101020000268536823F4006353600268D36A23F4B0
:101030007003D3620168CB6AC269013A43EA025382
:10104000CB620268936823F400739360026893682C
:10105000016B43EA412393600268936823F4806341
:10106000936002689368416943EA81239360704703
:101070000268936823F0706393600268936823F0BA
:1010800040539360BEE70268536843F400635360C3
:101090000268536823F46043536001684B68426AF6
:1010A000013A43EA42334B60BFE700BF00230140EF
:1010B0000100000F30B310B50446036C43B1236C3C
:1010C00013F0100F0AD00120002384F83C3010BD2B
:1010D000436480F83C3003F01FFFF0E7236C23F4F7
:1010E000885323F0020343F0020323642046FFF7F2
:1010F00049FF00206064236C23F0030343F00103E5
:101100002364E1E70120704730B482B000230193EB
:1011100090F83C30012B00F0B580012380F83C3082
:101120000B68092B3ED90568EA689BB203EB4303C1
:101130001E3B072404FA03F322EA0303EB6005686D
:10114000EA688C680B8803EB43031E3B04FA03F345
:101150001343EB604B68062B3AD805686A6B03EBC8
:101160008303053B1F2404FA03F322EA03036B63A2
:1011700005686A6B4B6803EB8303053B0C8804FA34
:1011800003F313436B6302683F4B9A4250D00268EB
:101190003D4B9A4255D0002380F83C30184602B0AF
:1011A00030BC704705682A699BB203EB43030724F0
:1011B00004FA03F322EA03032B6105682A698C68A9
:1011C0000B8803EB430304FA03F313432B61C1E7DA
:1011D0000C2B16D805682A6B03EB8303233B1F24D3
:1011E00004FA03F322EA03032B6305682A6B4B68B6
:1011F00003EB8303233B0C8804FA03F313432B63B1
:10120000C1E70568EA6A03EB8303413B1F2404FA44
:1012100003F322EA0303EB620568EA6A4B6803EB17
:101220008303413B0C8804FA03F31343EB62AAE700
:101230000B68122BABD1154A536843F480035360FB
:10124000A5E70B68124A934201D0112BA3D10F4A94
:10125000536843F4000353600A680D4B9A429AD1D5
:101260000C4B1B680C4AA2FB03239B0C03EB830370
:101270005A00019202E0019B013B0193019B002B6C
:10128000F9D188E702208AE70020014000230140CD
:10129000120000100C00002083DE1B43074AD368B5
:1012A00023F4E0631B041B0C000200F4E06018430D
:1012B00040F0BF6040F40030D060704700ED00E0C7
:1012C00030B4174BDB68C3F30223C3F10704042CCB
:1012D00028BF04241D1D062D18D9033B4FF0FF35F0
:1012E00005FA04F421EA0401994005FA03F322EA1D
:1012F0000303194300280BDB0901C9B200F1604068
:1013000000F5614080F8001330BC70470023E5E72A
:1013100000F00F000901C9B2024B1954F4E700BFF5
:1013200000ED00E014ED00E000F01F024009012391
:101330009340024A42F82030704700BF00E100E0CD
:101340000138B0F1807F0AD2064B5860064AF0217E
:1013500082F823100020986007221A60704701204D
:10136000704700BF10E000E000ED00E090F835307D
:10137000DBB2022B03D08023436501207047052395
:1013800080F835300268136823F0010313600020F1
:101390007047000000230F2B00F2C580F0B482B02C
:1013A00039E0042200E00022B2403A4302345E4EAB
:1013B00046F824205D4A1468EA4302EA04064F68AE
:1013C00017F4803F01D045EA0406584C2660646853
:1013D00002EA04064F6817F4003F01D045EA04060C
:1013E000524C6660A46802EA04064F6817F4801F36
:1013F00001D045EA04064D4CA660E46822404E68E0
:1014000016F4001F01D045EA0402484CE2600133A3
:101410000F2B00F2858001229A400C6804EA020535
:10142000AA42F4D14C68022C01D0122C10D1DE0853
:10143000083650F826C003F00704A7000F24BC406C
:101440002CEA040C0C69BC4044EA0C0440F8264029
:1014500004685F000326BE40F64306EA040C4C68AD
:1014600004F00304BC4044EA0C0404604C6804F13A
:10147000FF3CBCF1010F03D9112C01D0122C10D16B
:10148000846806EA040CCC68BC4044EA0C0484601E
:10149000446824EA02024C68C4F300149C401443DC
:1014A0004460C26816408A68BA403243C2604A68E3
:1014B00012F0805FABD0002201921D4A546C44F4BC
:1014C00080445464526C02F480420192019A9C0858
:1014D000A61C154A52F8267003F0030296000F224C
:1014E000B24027EA0207134A90423FF45CAF02F58C
:1014F000806290420ED002F5806290420CD002F5DC
:10150000806290420AD002F5806290423FF449AF77
:10151000072249E7012247E7022245E7032243E782
:1015200002B0F0BC7047704700380140003C0140F9
:10153000003802400000024012B90904816170477E
:101540008161704790F83E30DBB2402B13D00369C5
:10155000B3F5804F1ED0036D002B2DD0036D012BF2
:1015600033D1436CC3F3C813026803F0060343F09E
:10157000F103136129E0036D2BB9436C026803F09A
:10158000FE03136121E0436C026843F00103DBB208
:1015900013611AE090F83D30DBB2212B06D0436C8A
:1015A000026843F00103DBB213610EE0436C026892
:1015B00003F0FE03136108E0436CC3F3C813026831
:1015C00003F0060343F0F003136100207047436CFF
:1015D0000268DBB213610020704710B48BB090F842
:1015E0003E30DAB2C16A046B90F83D30DBB2222B98
:1015F0000CD00023099303685A6909929B690993E7
:10160000099B00200BB05DF8044B7047036D0BB9CC
:10161000402A17D0036D1BB90369B3F5404F19D0A9
:10162000438D9BB2002B25D1029303685A69029225
:101630009A690292029A1A6842F400721A600023B0
:101640000365DEE7009303685A6900929B69009383
:10165000009BD6E70023019303685A6901929A69B7
:101660000192019A1A6842F480721A60036D013384
:101670000365C6E7438D9BB2012B1AD0438D9BB205
:10168000022B6BD00268136843F480631360036815
:101690005A6812F4006F03D05A6842F480525A60BC
:1016A0000023089303685A6908929B690893089B72
:1016B000C5E711F5803F16D004293DD008293BD05D
:1016C000122C39D0C36A022B30D00268136823F47D
:1016D000806313600023059303685A6905929B6930
:1016E0000593059BABE70268136823F480631360DE
:1016F00003685A6812F4006F0CD01A6822F48062F2
:101700001A600023039303685A6903929B69039349
:10171000039B94E7002204925A6904929A69049206
:10172000049A1A6842F400721A6088E70268136823
:1017300043F480631360CDE70268136823F4806389
:1017400013600023069303685A6906929A69069209
:10175000069A1A6842F400721A6070E7C36A022B94
:101760001BD00268136823F4806313600268136857
:1017700043F40063136003685A6812F4006F03D0E7
:101780005A6842F480525A600023079303685A69EA
:1017900007929B690793079B51E70268136843F41C
:1017A00080631360E7E7438D9BB24BB1436A5A1CD9
:1017B000426202681B781361438D013B9BB24385F3
:1017C00000207047438D9BB24BB103681A69436A8E
:1017D000591C41621A70438D013B9BB24385002026
:1017E000704703685A6912F4806F0DD06FF48062FD
:1017F0005A610423036400230363202280F83D2000
:1018000080F83C300120704700207047F8B506464C
:101810000C4617461D461EE02DB1FFF799FB069BAF
:10182000C01AA84217D900233363202286F83D202E
:1018300086F83E3086F83C3003201AE033685B6956
:1018400024EA03039BB2B3FA83F35B099F420FD1EF
:10185000B5F1FF3FE0D1C4F30743012BEED033686D
:101860009B6924EA03039BB2B3FA83F35B09EDE7B8
:101870000020F8BDF8B504460D4616461F4632E076
:101880001A6842F400721A6023686FF480625A6129
:101890000423236400232363202284F83D2084F85A
:1018A0003C3001202DE026B1FFF752FBC01BB042B7
:1018B00019D900232363202284F83D2084F83C308A
:1018C00003201EE023685B6925EA03039BB2003313
:1018D00018BF0123A3B123685A6912F4806FCFD1D6
:1018E000B6F1FF3FDFD1C5F30743012BEAD02368F0
:1018F0009B6925EA03039BB2003318BF0123E9E784
:101900000020F8BD70B504460D46164623685B6995
:1019100013F0800F19D12046FFF763FFB8B9B5F176
:10192000FF3FF3D025B1FFF713FB801BA842EDD991
:10193000236C43F02003236400232363202284F8D4
:101940003D2084F83C30032000E0002070BD0120E1
:10195000FCE700002DE9F04184B004460E4617462E
:1019600098460B9D0268136843F4807313600095DA
:101970000A9B00224FF00111FFF748FF002847D1D2
:10198000236806F0FE061E612B460A9A2649204669
:10199000FFF770FF20B1236C042B3ED1012338E008
:1019A0000023039323685A6903929B690393039B63
:1019B0002A460A992046FFF7A5FF034648B1236C43
:1019C000042B2CD12268136843F4007313600123A5
:1019D0001FE0B8F1010F13D023683A0A1A612A46B2
:1019E0000A992046FFF78EFF034668B1236C042B4B
:1019F00017D12268136843F400731360012308E0D1
:101A00002268FFB2176104E02268FFB2176100E0AC
:101A10000323184604B0BDE8F0810323F9E703234C
:101A2000F7E70323F5E700BF020001002DE9F041CD
:101A300084B004460E46174698460B9D026813680C
:101A400043F4806313600268136843F48073136087
:101A500000950A9B00224FF00111FFF7D7FE0028E6
:101A600074D1F6B2236806F0FE021A612B460A9A78
:101A70003F492046FFF7FEFE20B1236C042B6AD1BC
:101A8000012364E00023039323685A6903929B694E
:101A90000393039B2A460A992046FFF733FF48B178
:101AA000236C042B59D12268136843F4007313602C
:101AB00001234CE0B8F1010F12D12368FFB21F617E
:101AC0002A460A992046FFF71DFF00B3236C042B1A
:101AD00047D12268136843F400731360012336E092
:101AE00023683A0A1A612A460A992046FFF70AFF34
:101AF00048B1236C042B32D12268136843F400737D
:101B00001360012323E02368FFB21F61D8E7226836
:101B1000136843F48073136000950A9B00224FF012
:101B200001112046FFF772FEE8B9236846F001066E
:101B30001E612B460A9A0E492046FFF79BFE03467C
:101B400028B1236C042B10D1012300E00323184695
:101B500004B0BDE8F0810323F9E70323F7E703238B
:101B6000F5E70323F3E70323F1E70323EFE700BFE0
:101B70000200010070B504460D46164623685B69F5
:101B800013F0040F19D12046FFF72BFEB8B9B5F1B9
:101B9000FF3FF3D025B1FFF7DBF9801BA842EDD959
:101BA000236C43F02003236400232363202284F862
:101BB0003D2084F83C30032000E0002070BD01206F
:101BC000FCE770B505460C4616462B685A6912F0BC
:101BD000400F22D15A6912F0100F11D124B1FFF732
:101BE000B7F9801BA042F0D92B6C43F020032B6483
:101BF000202385F83D30002385F83C30032070BD5C
:101C00006FF010025A6100232B642B63202285F8A9
:101C10003D2085F83C300120F1E70020EFE700008F
:101C2000002800F0828010B5044690F83D30002B6B
:101C300041D0242384F83D302268136823F0010347
:101C4000136001F0C7FC3A4BA3FB00239B0C2268F6
:101C500053606168374A914232D801332268136277
:101C60006368344A934235D85B00B0FBF3F0C0F3AD
:101C70000B03032B00D804202368D861E369216A91
:101C800022680B4313602369E16822680B43936069
:101C90006369A16922680B43D3602268136843F02B
:101CA0000103136000202064202384F83D3020636A
:101CB00084F83E0010BD80F83C3003F075F9B8E7B9
:101CC0004FF4967202FB03F31B4AA2FB03239B090A
:101CD0000133C3E7A16889B903EB4302B0FBF2F219
:101CE000C2F30B02B2FA82F25209E2B991B903EBE4
:101CF0004303B0FBF3F040F40040BDE703EB830285
:101D000002EB8202B0FBF2F2C2F30B02B2FA82F2F1
:101D10005209EAE703EB830303EB8303B0FBF3F021
:101D200040F44040A8E70120A6E70120704700BF2B
:101D300083DE1B43A0860100D34D62102DE9F041E4
:101D400082B004460E4617469846FFF701F994F80C
:101D50003D30DBB2202B04D00223184602B0BDE890
:101D6000F081054600901923012251492046FFF7D2
:101D70004DFD002840F0938094F83C30012B00F09A
:101D80009080012384F83C3023681A6812F0010F18
:101D900003D11A6842F001021A602268136823F422
:101DA00000631360212384F83D30402384F83E30E3
:101DB00000232364089B6362BDF8243063853D4B98
:101DC000E362638D238501950A9B009343463A465F
:101DD00031462046FFF7BEFDB0B1236C042B04D181
:101DE000002384F83C300123B7E7002384F83C301B
:101DF0000323B2E7236C042B55D12268136843F404
:101E0000007313600123A8E7238D002B28D02A46F6
:101E10000A992046FFF776FD0028EBD1636A5A1C29
:101E2000626222681B781361238D013B9BB223857C
:101E3000628D013A92B262852268516911F0040FF5
:101E4000E2D0002BE0D0636A591C61621B781361F9
:101E5000238D013B2385638D013B9BB26385D3E7D3
:101E60002A460A992046FFF785FE034648B1236CAF
:101E7000042B1AD12268136843F400731360012302
:101E80006BE721680A6842F400720A60202284F835
:101E90003D20002284F83E2084F83C205DE70223A8
:101EA0005BE7022359E7032357E7032355E700BF06
:101EB000020010000000FFFF2DE9F04186B004464B
:101EC0000E4617469846FFF743F894F83D30DBB2CC
:101ED000202B04D00226304606B0BDE8F08105462E
:101EE0000090192301228B492046FFF78FFC002820
:101EF00040F04B8194F83C30012B00F048810123E5
:101F000084F83C3023681A6812F0010F03D11A6874
:101F100042F001021A602268136823F40063136020
:101F2000222384F83D30402384F83E30002323648C
:101F30000C9B6362BDF834306385774BE362638D3D
:101F4000238501950E9B009343463A463146204631
:101F5000FFF76CFD064660B1236C042B04D100230F
:101F600084F83C300126B6E7002384F83C30032691
:101F7000B1E7238D5BB9029323685A6902929A698B
:101F80000292029A1A6842F400721A6075E0012BFC
:101F90000AD0022B1AD00023059323685A690592B0
:101FA0009B690593059B68E02268136823F48063AE
:101FB00013600023039323685A6903929A6903927A
:101FC000039A1A6842F400721A6056E02268136895
:101FD00023F4806313602268136843F40063136082
:101FE0000023049323685A6904929B690493049B19
:101FF00043E02A460E992046FFF7E3FD68B92368BF
:102000001A69636A591C61621A70238D013B23852A
:10201000638D013B9BB263852FE0236C202B01D0A5
:10202000012658E7032656E700950E9B00223B4900
:102030002046FFF7EBFB002840F0AB8022681368D6
:1020400043F40073136023681A69636A591C616260
:102050001A70238D013B2385638D013B9BB2638501
:1020600023681A69636A591C61621A70238D013BE7
:102070002385638D013B9BB26385238D002B7BD031
:10208000032B4DD8012BB4D0022BCDD000950E9B45
:10209000002222492046FFF7B9FB00287BD12268A5
:1020A000136823F48063136023681A69636A591CF8
:1020B00061621A70238D013B2385638D013B9BB2C6
:1020C000638500950E9B002214492046FFF79EFB76
:1020D000002862D12268136843F4007313602368F8
:1020E0001A69636A591C61621A70238D013B23854A
:1020F000638D013B9BB2638523681A69636A591C2F
:1021000061621A70238D013B2385638D013B9BB275
:102110006385B2E7020010000000FFFF0400010029
:102120002A460E992046FFF74CFDF0B923681A693C
:10213000636A591C61621A70238D013B2385638D8C
:10214000013B9BB2638523685A6912F0040F94D057
:102150001A69636A591C61621A70238D013B2385D9
:10216000638D013B9BB2638587E7236C202B01D0F5
:102170000126B0E60326AEE6202384F83D30002396
:1021800084F83E3084F83C30A5E60226A3E6022619
:10219000A1E603269FE603269DE603269BE600BFF5
:1021A00070477047704708B590F83D30DAB2438DFC
:1021B0009BB273B1436A591C416201681B780B6181
:1021C000438D013B9BB24385438D9BB20BB9292ABA
:1021D00001D0002008BD0268536823F48063536077
:1021E00021230363282380F83D30FFF7DBFFF0E76E
:1021F000704790F83D30DAB2438D9BB2F3B110B521
:1022000003681969436A5C1C44621970438D013B81
:102210009BB24385438D9BB20BB92A2A01D0002083
:1022200010BD0268536823F4806353602223036364
:10223000282380F83D30FFF7DBFFF0E700207047F0
:10224000704708B503689A6912F0040F09D000219D
:102250009B6913F0800F06D0028BFFF7F1FF00207F
:1022600008BD0121F4E78289F7E77047704710B590
:1022700090F83D30DBB290F83E20D2B2C46A018DB6
:1022800009B9212B05D0212B3CD0402A38D0002081
:1022900010BD042C04D0082C02D014F5803F19D1B5
:1022A0000268536823F4E06353600268136843F4E0
:1022B0000073136000230363202380F83D3090F8FF
:1022C0003E30DBB2402B15D0002380F83E30FFF7C4
:1022D00067FFDCE70268536823F4E063536011236F
:1022E0000363002380F83E30202380F83D30FFF761
:1022F00057FFCCE7002380F83E30FFF7B7FFC6E773
:10230000222BC4D1438D9BB27BB190F83E30DBB21F
:10231000402B10D0436A5A1C426202681B7813613A
:10232000438D013B9BB24385B1E70268536823F4B8
:1023300080635360ABE7036D9BB9C36C012B08D07E
:10234000836CC3F3072302681361036D01330365D4
:102350009DE7836C0268DBB21361036D0233036592
:1023600095E7036D012B17D0036D022B8FD190F8E9
:102370003D30DBB2222B17D090F83D30DBB2212B61
:1023800085D1436A5A1C426202681B781361438DEF
:10239000013B9BB243857AE7836C0268DBB2136131
:1023A000036D0133036572E70268136843F48073B9
:1023B00013606CE708B5C26A90F83D30DBB2212BA0
:1023C00001D0002008BD438D9BB203BB042A04D07A
:1023D000082A02D012F5803F24D10268536823F402
:1023E000E06353600268136843F4007313600023D2
:1023F0000363202380F83D3090F83E30DBB2402B61
:1024000020D0002380F83E30FFF7CAFED9E7436AA8
:102410005A1C426202681B781361438D013B9BB2D8
:102420004385CEE70268536823F4E06353601123C9
:102430000363002380F83E30202380F83D30FFF70F
:10244000AFFEBEE7002380F83E30FFF70FFFB8E78E
:10245000704708B590F83D30DBB2222B01D0002048
:1024600008BD438D9BB2032B13D903681A69436AD5
:10247000591C41621A70438D013B9BB24385438DC9
:102480009BB2032BEBD10268536823F48063536043
:10249000E5E7012BE3D80268136823F48063136037
:1024A0000268536823F4E063536003681A69436A5F
:1024B000591C41621A70438D013B9BB24385202316
:1024C00080F83D300023036390F83E30DBB2402BB0
:1024D00005D0002380F83E30FFF763FEBFE70023FE
:1024E00080F83E30FFF7B4FFB9E708B5C26A438D04
:1024F0009BB2042B13D0438D9BB2032B1FD0438D73
:102500009BB2022B30D003681A69436A591C41629E
:102510001A70438D013B9BB24385002008BD0268C1
:10252000536823F48063536003681A69436A591C33
:1025300041621A70438D013B9BB24385EDE702680F
:10254000536823F4806353600268136823F4806344
:10255000136003681A69436A591C41621A70438DFB
:10256000013B9BB24385D8E7013A012A2DD9026885
:10257000136843F40073136003681A69436A591CB3
:1025800041621A70438D013B9BB2438503681A690F
:10259000436A591C41621A70438D013B9BB24385CB
:1025A0000268536823F440735360202380F83D3061
:1025B0000023036390F83E30DBB2402B10D00023A1
:1025C00080F83E30FFF7EDFDA7E70268136823F4BB
:1025D000806313600268136843F480731360CBE771
:1025E000002380F83E30FFF733FF96E770477047CF
:1025F00010B5044690F83D30293B012B37D990F8AF
:102600003D30DBB2602B07D003685B6813F4006FCA
:1026100002D1202380F83D300023236384F83E302C
:102620002268136823F40063136023685A6812F465
:10263000006F3FD05A6822F400625A60626B92F8D1
:102640003530DBB2012B18D03A4B1365606BFEF7C7
:102650008DFE00283FD02268136823F00103136029
:10266000202384F83D30606B036D984733E00023EE
:102670000363282380F83D30D2E7A36B2D4A1A6507
:10268000A06BFEF773FE30B323685A6912F0400F57
:1026900004D01A69636A591C61621A70226813684F
:1026A00023F001031360202384F83D30A06B036DF9
:1026B000984710E094F83D20D2B2602A11D05A69B0
:1026C00012F0400F04D01A69636A591C61621A70D3
:1026D0002046FFF78BFF94F83D30DBB2282B17D054
:1026E00010BD202284F83D20002222645A6912F095
:1026F000400F04D01A69636A591C61621A7022681B
:10270000136823F0010313602046FFF770FFE2E730
:10271000236C13F0040FE3D0074BE3620023236321
:10272000202284F83D2084F83E302046FFF79DFDAE
:10273000D6E700BFA52900080000FFFF10B582B052
:1027400090F83D30DBB201684A6822F4E0624A60EA
:1027500000220192026851690191116841F0010162
:102760001160019A01680A6822F480620A600168B7
:102770004A6812F4006F14D090F83D20D2B2222A99
:102780000AD090F83D20D2B22A2A05D0426B1268B6
:10279000526892B2428504E0826B1268526892B22B
:1027A0004285428D92B2F2B14A6912F0040F08D00C
:1027B0000969426A541C44621170428D013A92B216
:1027C00042850268516911F0400F08D01169426AD0
:1027D000541C44621170428D013A92B24285026CDF
:1027E00042F004020264026CA2B9282B15D02A2BF5
:1027F00013D0292B11D0026B222A01D0222B17D102
:1028000000230363202280F83D2080F83E30FFF74C
:10281000EFFC0DE0FFF7ECFE0AE0074BC36200237C
:102820000363202280F83D2080F83E30FFF71DFD35
:10283000002002B010BD00BF0000FFFFF8B5054644
:1028400003689F695C695E6890F83E30DBB2102BCC
:1028500025D0402B23D04C4B234013B116F4007FDE
:102860006ED14A4B234013B116F4007F6BD1484B15
:102870003B40002B6FD0474B234033B116F4806FA1
:1028800003D0454B2340002B61D0434B234053B32F
:1028900016F4007F27D02846FEF785FF23E014F0CA
:1028A000011F02D016F4007F1ED13C4B234013B110
:1028B00016F4007F1CD1344B234013B116F4007F73
:1028C0001AD1334B3B401BB3324B23402BB116F490
:1028D000806F02D0304B234093B12F4B234013B174
:1028E00016F4007F10D1F8BD2846FEF72BFEE8E76E
:1028F0002846FEF76CFEE4E72846FEF76EFEE0E7AA
:102900002846FFF7B4FCEEE72846FFF753FDEAE759
:10291000234B23402BB116F4806F02D01E4B234073
:1029200053B11D4B2340002BDDD016F4007FDAD0CD
:102930002846FFF7DAFDD6E72846FFF78AFDD2E7FB
:10294000FFF77FFCCFE72846FFF7F8FECBE72846E6
:10295000FFF729FCC7E7124B23402BB116F4806F19
:1029600002D00D4B234053B10B4B2340002BBAD068
:1029700016F4007FB7D02846FEF724FFB3E72846B9
:10298000FFF737FCAFE700BF0200010010000100B5
:102990000400100080000100040001000800010094
:1029A0004000010008B5806B0268136823F480635F
:1029B000136000234385426B1365826B136590F8A7
:1029C0003D30DBB2602B0DD0202380F83D3000235A
:1029D00080F83E300268136823F001031360FFF7AC
:1029E00005FE08BD202380F83D30002380F83E30EE
:1029F00003640268136823F001031360FFF7F7FD17
:102A0000EFE7704708B5436A9A1C426202681B8868
:102A1000D360438D013B9BB24385438D9BB203B191
:102A200008BD0268536823F0A0031B041B0C53600D
:102A3000012380F84130FFF7E4FFF1E7704708B564
:102A40000368DA68C36A991CC1621A80438E013B2D
:102A50009BB24386438E9BB203B108BD02685368A4
:102A600023F060031B041B0C5360012380F84130EA
:102A7000FFF7E4FFF1E77047002800F0BB8070B576
:102A80000446022580F841505B4B436302F016FB7D
:102A90002268D36923F47B6323F00F03D361236897
:102AA0001D622368DD696369022B5BD0E368002B3C
:102AB0003ED02026A368202B00D87600012000F00D
:102AC00061FE2369B3F5007F34D0B0FBF6F000EB74
:102AD000800043006269B3FBF2F30533474AA2FB6F
:102AE0000323DB0803F001029B1AC3F34F03110217
:102AF0009A1EFD2A38D822690A43216813430B62C3
:102B00006268A168E068238B03439BB20B439BB2CE
:102B100013439BB243F400631D432368DD61236AC2
:102B2000012B2AD000206064012384F8413070BD5D
:102B30001026BFE7E36853B1B600B0FBF6F000EB38
:102B4000800043006269B3FBF2F30533C6E7F60089
:102B5000B0FBF6F000EB800043006269B3FBF2F3D8
:102B60000533BBE70021C3E7636C43F010036364E4
:102B70002046FFF780FF0120D9E7214B63632268DD
:102B8000204B9A421ED04FF04022D36923F47B633E
:102B900023F00F03D36122681A4B9A4214D04FF0EE
:102BA000402302221A622268164B9A420FD04FF03D
:102BB0004022D0696168B1F5007F0AD0C1B94FF4F5
:102BC000807608E0104AE0E7A3F58063E9E70E4A63
:102BD000EFE74FF48076A168E568238B2B439BB227
:102BE0000B439BB2334343F400630343D36199E740
:102BF0000026F0E7012070470D2C0008CDCCCCCC8E
:102C0000292E0008003800400034004010B584B080
:102C1000044602689368039390F84130DBB2042BBA
:102C200006D094F84130DBB2032B2ED004B010BD97
:102C3000039B13F0010F03D0536813F0400F21D111
:102C4000039B13F0400FECD023685A6812F0200F5A
:102C5000E7D05A6822F060021204120C5A60002376
:102C600001932368DA6801929B680193019B012319
:102C700084F84130636C43F0020363642046FFF73D
:102C8000FAFECEE7FFF7DBFEDAE7039B13F0020F55
:102C900004D023685B6813F0800F1FD1039B13F0EF
:102CA000080FC3D023685A6812F0200FBED05A68AC
:102CB00022F0A0021204120C5A600023029323682F
:102CC0009B680293029B012384F84130636C43F0BC
:102CD000040363642046FFF7CEFEA7E72046FFF714
:102CE00091FEDBE77047000008B5E9B9436A9A1C1A
:102CF000426202681B88D360438D013B9BB24385CF
:102D0000438D9BB24BB90268536823F0A0031B04A8
:102D10001B0C5360438E9BB203B108BD012380F8A6
:102D20004130FFF7DFFFF8E7436A9A1C42621A88D6
:102D30000168134B99421ED04FF04023DA60438D57
:102D4000013B9BB24385438D9BB2002BE5D10268CA
:102D50000B4B9A4212D04FF04022536823F0A0034D
:102D60005360438E9BB2002BD7D1012380F84130B2
:102D7000FFF7B8FFD1E7A3F58063DFE7014AECE78F
:102D8000003800400034004008B5E9B90368DA684B
:102D9000C36A991CC1621A80438E013B9BB2438671
:102DA000438E9BB24BB90268536823F060031B0447
:102DB0001B0C5360438D9BB203B108BD012380F807
:102DC0004130FFF78FFFF8E70268154B9A4222D097
:102DD0004FF04023DA68C36A991CC1621A80438E9F
:102DE000013B9BB24386438E9BB2002BE5D1026828
:102DF0000B4B9A4212D04FF04022536823F06003ED
:102E00005360438D9BB2002BD7D1012380F8413012
:102E1000FFF768FFD1E7A3F58063DBE7014AECE742
:102E2000003800400034004010B584B00446036808
:102E30009A6803927C4A93425DD04FF040218A68A1
:102E40000292DA6902F44072B2F5007F04D0DA69C6
:102E500012F4407F40F08180039A12F0020F03D0F9
:102E60005B6813F0800F48D1029B13F0010F09D06B
:102E700022686D4B9A4245D04FF040235B6813F0B7
:102E8000400F42D1029B13F0400F09D02268664BDD
:102E90009A423FD04FF040235A6812F0200F3CD1A5
:102EA000039B13F0080F24D023685A6812F0200FF8
:102EB0001FD05A6822F0A0021204120C5A60226835
:102EC000594B9A4247D04FF04022536823F0600399
:102ED00053600023019323689B680193019B0123A6
:102EE00084F84130636C43F0040363642046FFF7C9
:102EF000C2FD04B010BD4D49A1E700212046FFF7F7
:102F0000F3FEB1E7A3F58063B8E701212046FFF7A0
:102F10003BFFB7E7A3F58063BEE75A6822F0600283
:102F20005A602268536823F0A0031B041B0C5360F3
:102F3000002300932368DA6800929B680093009B4B
:102F4000012384F84130636C43F00203636420463C
:102F5000FFF791FDA4E7354AB7E7029B13F0020F94
:102F600003D04B6813F0800F4FD1039B13F0010F78
:102F700004D023685B6813F0400F4BD1039B13F020
:102F8000400F1ED023685A6812F0200F19D05A68DB
:102F900022F060021204120C5A602268224B9A42FC
:102FA0003DD04FF04022536823F0A003536001232B
:102FB00084F84130636C43F0020363642046FFF7FA
:102FC0005AFD029B13F0080F93D02268164B9A42C9
:102FD00027D04FF040235A6812F0200F89D05A684A
:102FE00022F0A0025A602268536823F060031B0499
:102FF0001B0C5360012384F84130636C43F00403DD
:1030000063642046FFF737FD73E701212046FFF791
:103010006BFEAAE700212046FFF7B6FEAEE7034AA3
:10302000C1E7A3F58063D6E70038004000340040D4
:10303000002800F0BB8170B582B00446036813F02D
:10304000010F3BD0A74B9B6803F00C03042B2CD043
:10305000A44B9B6803F00C03082B21D06368B3F5E5
:10306000803F4FD0B3F5A02F52D09E4B1A6822F468
:1030700080321A601A6822F480221A606368002B7A
:1030800050D0FDF765FF0546964B1B6813F4003FD3
:1030900014D1FDF75DFF401B6428F5D903208AE1B8
:1030A000904B5B6813F4800FD8D08E4B1B6813F4E1
:1030B000003F03D06368002B00F07A81236813F08F
:1030C000020F55D0874B9B6813F00C0F3ED0854BF9
:1030D0009B6803F00C03082B33D0E368002B68D007
:1030E000814B01221A60FDF733FF05467D4B1B68BB
:1030F00013F0020F54D1FDF72BFF401B0228F5D926
:10310000032058E1774A136843F480331360B5E72E
:10311000744B1A6842F480221A601A6842F48032B2
:103120001A60ABE7FDF714FF05466E4B1B6813F4FE
:10313000003FC3D0FDF70CFF401B6428F5D90320E6
:1031400039E1684B5B6813F4800FC6D1654B1B688F
:1031500013F0020F04D0E368012B01D001202AE113
:10316000604A136823F0F803216943EAC10313603E
:10317000236813F0080F40D0636963B35B4B0122EF
:103180001A60FDF7E5FE0546564B5B6F13F0020F24
:1031900033D1FDF7DDFE401B0228F5D903200AE1FB
:1031A000504A136823F0F803216943EAC10313600E
:1031B000DEE74D4B00221A60FDF7CAFE0546494B7B
:1031C0001B6813F0020FD3D0FDF7C2FE401B02288C
:1031D000F5D90320EFE0454B00221A60FDF7B8FE59
:1031E0000546404B5B6F13F0020F06D0FDF7B0FEB3
:1031F000401B0228F5D90320DDE0236813F0040FFB
:1032000079D0384B1B6C13F0805F33D100230193CE
:10321000344B1A6C42F080521A641B6C03F08053DA
:103220000193019B0125324B1B6813F4807F23D04F
:10323000A368012B34D0052B38D02A4B1A6F22F00B
:1032400001021A671A6F22F004021A67A368002BA2
:1032500036D0FDF77DFE0646224B1B6F13F0020FA2
:1032600048D1FDF775FE801B41F288339842F3D9AF
:103270000320A0E00025D6E71D4A136843F48073BD
:103280001360FDF765FE0646194B1B6813F4807F3B
:10329000CED1FDF75DFE801B0228F5D903208AE020
:1032A000104A136F43F001031367CFE70D4B1A6FFA
:1032B00042F004021A671A6F42F001021A67C5E76A
:1032C000FDF746FE0646074B1B6F13F0020F11D0A9
:1032D000FDF73EFE801B41F288339842F3D903206C
:1032E00069E000BF0038024000004742800E4742BC
:1032F00000700040E5B9A369002B5BD0304A9268AA
:1033000002F00C02082A58D0022B17D02D4B0022B5
:103310001A60FDF71DFE0446294B1B6813F0007F61
:1033200042D0FDF715FE001B0228F5D9032042E02C
:10333000234A136C23F080531364DCE7214B0022F3
:103340001A60FDF705FE05461D4B1B6813F0007F54
:1033500006D0FDF7FDFD401B0228F5D903202AE029
:10336000E369226A1343626A43EA8213A26A52083B
:10337000013A43EA0243E26A43EA0263104A5360B5
:10338000104B01221A60FDF7E3FD04460C4B1B684D
:1033900013F0007F06D1FDF7DBFD001B0228F5D9F5
:1033A000032008E0002006E0002004E00120704730
:1033B000012000E0002002B070BD0120FBE700BF4B
:1033C0000038024060004742264B9B6803F00C0324
:1033D000042B44D0082B01D0234870472DE9F04B33
:1033E000204B5A6802F03F025B6813F4800F13D041
:1033F0001C4B5968C1F3881100231C48A1FB000134
:10340000FDF7BCFA174B5B68C3F3014301335B0064
:10341000B0FBF3F0BDE8F08B124B5B68C3F388138D
:103420001E4600275C010025E41A65EB0705A9018B
:1034300041EA9461A001001B61EB0501CB0043EA66
:103440005073C400A01943EB07018B0243EA905369
:103450008402204619460023FDF790FAD2E703487C
:10346000704700BF003802400024F40080BA8C018D
:10347000002800F09D8070B504464F4B1B6803F098
:103480000F038B4209D2CBB24B4A1370136803F07F
:103490000F038B4201D0012070BD236813F0020F8F
:1034A00017D013F0040F04D0444A936843F4E05358
:1034B0009360236813F0080F04D0404A936843F4E4
:1034C000604393603D4A936823F0F003A068034390
:1034D00093600D46236813F0010F32D06368012B0F
:1034E00021D09A1E012A25D9344A126812F0020FFF
:1034F00060D032498A6822F0030213438B60FDF7E3
:1035000027FD06462D4B9B6803F00C036268B3EB66
:10351000820F16D0FDF71CFD801B41F288339842C4
:10352000F0D90320B8E7254A126812F4003FE0D131
:103530000120B1E7214A126812F0007FD9D10120A1
:10354000AAE71D4B1B6803F00F03AB4209D9EAB28F
:10355000194B1A701B6803F00F03AB4201D0012016
:103560009AE7236813F0040F06D0144A936823F4F3
:10357000E053E1680B439360236813F0080F07D012
:103580000E4A936823F46043216943EAC1039360C0
:10359000FFF71AFF094B9B68C3F30313084AD35C78
:1035A000D840084B18600020FDF788FC002073E726
:1035B0000120704701206FE7003C024000380240C4
:1035C000507500080C000020014B1868704700BFC0
:1035D0000C00002008B5FFF7F7FF044B9B68C3F30E
:1035E0008223034AD35CD84008BD00BF00380240A4
:1035F0006075000808B5FFF7E7FF044B9B68C3F34D
:103600004233034AD35CD84008BD00BF00380240B3
:103610006075000830B583B00446036813F0050FE9
:103620000ED1236813F0020F38D1236813F0080F6E
:1036300000F09B80227D4E4B1A60002003B030BD0D
:103640004C4B00221A60FDF783FC05464A4B1B6871
:1036500013F0006F06D0FDF77BFC401B0228F5D964
:103660000320EBE76368A26843EA8213E26843EA57
:103670000273414AC2F884303E4B01221A60FDF7C2
:1036800067FC05463C4B1B6813F0006FC9D1FDF782
:103690005FFC401B0228F5D90320CFE700230193EC
:1036A000354B1A6C42F080521A641B6C03F0805345
:1036B0000193019B314A136843F480731360FDF753
:1036C00047FC05462D4B1B6813F4807F06D1FDF7A0
:1036D0003FFC401B0228F5D90320AFE7264B1B6FA8
:1036E00013F4407312D0226902F440729A420DD052
:1036F000214B1A6F22F440722149012008600020FA
:1037000008601A671B6F13F0010F12D1236903F4CD
:103710004072B2F5407F1DD0174A936823F4F81326
:10372000936015490B6F2269C2F30B0213430B67B9
:103730007BE7FDF70DFC05460F4B1B6F13F0020FE7
:10374000E4D1FDF705FC401B41F288339842F3D9E0
:10375000032073E708498A6822F4F81223F07043C3
:1037600023F4407313438B60DBE7002066E700BF60
:10377000E0114742680047420038024000700040B4
:10378000400E474201282CD1184B9B6813F40003CC
:1037900003D0012B27D116487047144B5B6813F4F4
:1037A000800F15D0114BD3F8843003F03F0311483C
:1037B000B0FBF3F00D4AD2F88430C3F3881300FB5A
:1037C00003F0D2F88430C3F30273B0FBF3F0704718
:1037D000064BD3F8843003F03F030748B0FBF3F007
:1037E000E8E7002070470020704700BF0038024023
:1037F0000080BB0080BA8C010024F40000283BD07C
:1038000010B504460023836290F85130002B2ED06F
:10381000022384F851302268136823F040031360B8
:103820006368A2681343E268134322691343626921
:103830001343A26902F400721343E2691343226A3C
:103840001343A16A22680B431360638B03F00403E4
:10385000616A22680B4353602268D36923F40063D2
:10386000D36100206065012384F8513010BD80F8D9
:10387000503001F06FFCCBE7012070472DE9F84391
:10388000044601680A6922F44052C36813430B617D
:103890000168CA6822F4164222F00C0283680069AB
:1038A000034360690343E06903431343CB6021682A
:1038B0004A6922F44072A36913434B61E369B3F58B
:1038C000004F60D02368B84A934200F0148102F59B
:1038D0008062934200F00F81FFF77CFE00EB8000D6
:1038E00000EB80006568AD00B0FBF5F5AF4FA7FBBE
:1038F00005356D092E01FFF76DFE00EB800000EB32
:1039000080006568AD00B0FBF5F9FFF763FE00EBE2
:10391000800000EB80006568AD00B0FBF5F5A7FB0B
:1039200005356D094FF0640808FB15952D013235FA
:10393000A7FB05356D0905F0F0053544FFF74AFE94
:1039400000EB800000EB80006668B600B0FBF6F686
:10395000FFF740FE00EB800000EB800063689B00F7
:10396000B0FBF3F0A7FB0030400908FB10684FEAFA
:10397000081808F13208A7FB0837C7F34317236874
:103980002F449F600DE12368874A93425BD002F584
:103990008062934257D0FFF71DFE00EB800000EBE2
:1039A000800065686D00B0FBF5F5804FA7FB05351D
:1039B0006D092E01FFF70EFE00EB800000EB80008A
:1039C00065686D00B0FBF5F9FFF704FE00EB8000C1
:1039D00000EB800065686D00B0FBF5F5A7FB0535D1
:1039E0006D094FF0640808FB1595ED003235A7FB13
:1039F00005356D096D0005F4F8753544FFF7EAFDEE
:103A000000EB800000EB800066687600B0FBF6F605
:103A1000FFF7E0FD00EB800000EB800063685B00D7
:103A2000B0FBF3F3A7FB03235B0908FB13684FEA22
:103A3000C80808F13208A7FB0837C7F34217236804
:103A40002F449F60ADE0FFF7D5FD00EB800000EB59
:103A5000800065686D00B0FBF5F5544FA7FB053598
:103A60006D092E01FFF7C6FD00EB800000EB800022
:103A700065686D00B0FBF5F9FFF7BCFD00EB800059
:103A800000EB800065686D00B0FBF5F5A7FB053520
:103A90006D094FF0640808FB1595ED003235A7FB62
:103AA00005356D096D0005F4F8753544FFF7A2FD85
:103AB00000EB800000EB800066687600B0FBF6F655
:103AC000FFF798FD00EB800000EB800063685B006F
:103AD000B0FBF3F3A7FB03235B0908FB13684FEA72
:103AE000C80808F13208A7FB0837C7F34217236854
:103AF0002F449F6055E0FFF77DFD00EB800000EB59
:103B000080006568AD00B0FBF5F5284FA7FB0535D3
:103B10006D092E01FFF76EFD00EB800000EB8000C9
:103B20006568AD00B0FBF5F9FFF764FD00EB8000C0
:103B300000EB80006568AD00B0FBF5F5A7FB05352F
:103B40006D094FF0640808FB15952D013235A7FB70
:103B500005356D0905F0F0053544FFF74BFD00EB29
:103B6000800000EB80006668B600B0FBF6F6FFF759
:103B700041FD00EB800000EB800063689B00B0FB20
:103B8000F3F0A7FB0030400908FB10684FEA081863
:103B900008F13208A7FB0837C7F3431723682F44FF
:103BA0009F60BDE8F88300BF001001401F85EB5106
:103BB0002DE9F04105460F4616469846069C2B68AF
:103BC0001B6837EA03030CBF01230023B3421DD156
:103BD000B4F1FF3FF3D02CB1FDF7BAF9A0EB080028
:103BE000A042ECD92A68D36823F4D073D3602A6842
:103BF000536923F001035361202385F8393085F898
:103C00003A30002385F83830032000E00020BDE87A
:103C1000F08158B310B5044690F839300BB3242323
:103C200084F839302268D36823F40053D3602046E7
:103C3000FFF724FE2268136923F49043136122687E
:103C4000536923F02A0353612268D36843F4005375
:103C5000D3600020E063202384F8393084F83A30C0
:103C600010BD80F8383001F003FBD8E70120704721
:103C70002DE9F04182B01E4690F83930DBB2202B9E
:103C800055D104460D469046002955D0002A55D0FE
:103C900090F83830012B53D0012380F838300023BE
:103CA000C363212380F83930FDF752F90746A4F8A1
:103CB0002480A4F8268010E000963B460022802154
:103CC0002046FFF775FF00283CD12B882268C3F3FC
:103CD000080353602369C3B90235E38C9BB2B3B1C7
:103CE000E38C013B9BB2E384A368B3F5805FE3D030
:103CF00000963B46002280212046FFF759FF18BB63
:103D00002A7823685A600135E7E70135E5E7009630
:103D10003B46002240212046FFF74AFF0346A8B950
:103D2000202284F83920002284F8382000E0022381
:103D3000184602B0BDE8F0810123F9E70123F7E757
:103D40000223F5E70323F3E70323F1E70323EFE778
:103D50002DE9F04184B00546434F4FF0000887F845
:103D600000800446430003445A00404E16447078D5
:103D7000B178012300930DF10F032F2200F0C6FE4E
:103D800085223B4B1A607078B1780C2300933B4638
:103D900000F0BCFEC7F82880C7F82C8018E0324B32
:103DA0009A6A995C561C9E5D01EB0621961C9E5DED
:103DB00001EB0641D61C9E5D01EB066104EB440657
:103DC00006442C4F47F8361004329A620130D8620C
:103DD000254BD86A0228E2DD254B0B221A60224BC4
:103DE0000022DA6212E06100214448001F4B0344C4
:103DF000587899781E4B1F681B4E01230093334659
:103E00003A4400F083FEF36A0133F362164BDA6A38
:103E10000C2AE8DD1C466FF04A0323706B002B442C
:103E20005A00124E16447078B1780123009323464D
:103E30000C2200F083FE7078B1780A2300932346A9
:103E40000E2200F063FE0C4B00225A5562780B4B99
:103E500003EBC5056A70E378EB70A2796A712B7188
:103E600004B0BDE8F08100BFFC010020AC080020D8
:103E7000B408002048070020A8080020E806002019
:103E800030B585B004460F20FDF768F80020FFF735
:103E90005FFF04AB032203F8042D084962001519E3
:103EA0006800054608444078294489780122009238
:103EB000702200F043FE05B030BD00BFAC0800200A
:103EC000F0B583B005462E4B002203F8642F702214
:103ED0002C490A6004464000284446002A493144DF
:103EE000487889780126009600F010FE20B1274B13
:103EF00000225A5503B0F0BD214F3B4613F8646FC2
:103F000006F00306224A565585221E490A606800BB
:103F100028444FEA400C1C49614448788978B6002F
:103F2000009600F0F3FD00233B677B6720E0144B15
:103F30001A6F991891F86410561C1E4496F8646024
:103F400001EB0621961C1E4496F8646001EB0641C5
:103F5000D61C1E4496F8646001EB066104EB44062F
:103F600006440C4F47F8361004321A670130586780
:103F7000074B1B5D024A506F8342D8DCB7E700BF96
:103F8000FC010020B4080020AC080020A808002094
:103F9000F0060020480700202DE9F0412DED028BAE
:103FA00096B00546914E0027B767044602469049F1
:103FB00007A801F0DBFEDFF850824FF0FF333C2210
:103FC00007A94046FFF754FE2846FFF779FF894BC3
:103FD0005A5D894907A801F0C9FE4FF0FF333C2222
:103FE00007A94046FFF744FE86F87C7094E08348BA
:103FF00004EB4401114450F83130C3F3892307EE38
:10400000903AF8EE677AB3EE047A87EE878A30F852
:104010003130C3F3090307EE903AF8EE677ADFED2B
:10402000786A87EEA67AFDEEC87AF8EEE77A67EE50
:10403000877AFDEEE77A6D4DC5ED207A561CCDED01
:10404000047A17EE100AFCF72FFACDE9020118EEF8
:10405000100AFCF729FACDE900013246694907A8A0
:1040600001F084FE4FF0FF333C2207A96648FFF7BA
:10407000FFFDD5F88030AA6F934247DBAB6745E080
:104080005E4804EB4403134400EBC3014988C1F3C9
:10409000091107EE901AF8EE677AB3EE047AC7EECC
:1040A000878A50F83310C1F3892107EE901AF8EE91
:1040B000677A87EE878A30F83330C3F3090307EE57
:1040C000903AF8EE677A551C9FED4D7AC7EE877AE5
:1040D00017EE900AFCF7E8F9CDE9040118EE900A12
:1040E000FCF7E2F9CDE9020118EE100AFCF7DCF961
:1040F000CDE900012A46454907A801F037FE4FF0F7
:10410000FF333C2207A94048FFF7B2FD374A92F837
:104110007C30013382F87C30364B1B5D334A92F899
:104120007C2093425DD904EB44039918334B03EB95
:10413000C1031B7903F00303012BA1D0002B3FF433
:1041400056AF022BE2D12D4804EB4401114400EBA1
:10415000C1035B88C3F3091307EE903AB8EE677AA0
:10416000F3EE046A50F83130C3F3892307EE903A36
:10417000F8EE677A87EEA68A30F83130C3F3090388
:1041800007EE903AF8EE677AB5EE006A67EE867A47
:10419000FDEEE77A154DC5ED217A561CCDED047A7A
:1041A000C7EE267A17EE900AFCF77EF9CDE90201F8
:1041B00018EE100AFCF778F9CDE9000132461449EF
:1041C00007A801F0D3FD4FF0FF333C2207A90E48AA
:1041D000FFF74EFDD5F88430AA6F934296DBAB67AC
:1041E00094E716B0BDEC028BBDE8F081FC01002025
:1041F00068750008F00600209C750008480700203C
:104200000000C842A8750008A4060020D475000864
:1042100004760008F0B583B04E1E1A4C84FB02549D
:10422000D217C2EB2412184F00EB4005354457F863
:10423000354062F3932447F83540144A82FB03C2A9
:10424000DB17C3EBA20363F3090427F835408B1E89
:10425000DBB2012B01D903B0F0BD01F13F029200A6
:10426000D2B27B3A440021184800094901444878F9
:1042700089780423009307EBC503D2B200F05EFCFB
:10428000E9E700BF1F85EB514807002067666666B7
:10429000AC0800202DE9F0432DED028B95B00446CB
:1042A000474D0027C5F88C7006460246454905A8CB
:1042B00001F05CFDDFF820814FF0FF333C2205A9BF
:1042C0004046FFF7D5FC2C4494F85C103E4801F0C2
:1042D0004DFD4FF0FF333C2205A94046FFF7C8FCD7
:1042E00085F8907005E0364A92F89030013382F8F4
:1042F0009030334B9A1992F85C2093F890108A42D0
:104300004CD93248C6EBC6020A4450F83230C3F3E7
:10431000892307EE903AF8EE677AF3EE046A87EEA7
:10432000A67A30F83230C3F3090307EE903AF8EE7C
:10433000677ADFED276A87EEA68AFDEEC77AF8EE88
:10434000E77A67EE887AFDEEE77A17EE904A1C4F1F
:10435000C7ED257A4D1C17EE100AFCF7A5F880462C
:104360008946029418EE100AFCF79EF8CDE9000188
:1043700042464B462946174801F0F8FC4FF0FF3300
:104380003C2205A91448FFF773FCD7F89430D7F8FE
:104390008C209342A7DBC7F88C30A4E7D3F88C10AD
:1043A0000E4801F0E3FC4FF0FF333C2205A90A4818
:1043B000FFF75EFC15B0BDEC028BBDE8F08300BFDB
:1043C000FC010020E47600089C750008F40600203B
:1043D0000000C8421C770008A40600204C770008A3
:1043E00010B544688068A04710BD10B504688068A7
:1043F000A04710BD30B583B004460D46012301AA85
:104400001F21FFF7EDFF9DF8043065F387138DF84A
:104410000430012301AA1F212046FFF7E6FF03B065
:1044200030BD70B582B0044639B1012902D00025F3
:10443000012604E000252E4601E001250026012387
:1044400001AA20212046FFF7CBFF9DF8043066F338
:10445000C3038DF80430012301AA20212046FFF771
:10446000C4FF012301AA23212046FFF7B9FF9DF8CD
:10447000043065F3C3038DF80430012301AA23211E
:104480002046FFF7B2FF02B070BD30B583B00446DE
:104490000D46012301AA2021FFF7A2FF9DF8043059
:1044A00065F307138DF80430012301AA202120466B
:1044B000FFF79BFF03B030BD30B583B004460D4617
:1044C000012301AA2321FFF78BFF9DF8043065F338
:1044D00005138DF80430012301AA23212046FFF79C
:1044E00084FF03B030BD30B583B004460D460123D0
:1044F00001AA2321FFF774FF9DF8043065F3C71369
:104500008DF80430012301AA23212046FFF76DFF17
:1045100003B030BD08B506230A462821FFF760FF27
:1045200008BD30B583B004460D46012301AA6021C1
:10453000FFF756FF9DF8043065F301038DF8043052
:10454000012301AA60212046FFF74FFF03B030BDD1
:1045500030B583B004460D46012301AA6021FFF760
:104560003FFF9DF8043065F383038DF80430012389
:1045700001AA60212046FFF738FF03B030BD30B5F7
:1045800083B004460D46012301AA6021FFF728FFEE
:104590009DF8043065F3C7138DF80430012301AA98
:1045A00060212046FFF721FF03B030BD30B583B056
:1045B00004460D46012301AA6121FFF711FF9DF872
:1045C000043065F342038DF80430012301AA612110
:1045D0002046FFF70AFF03B030BD30B583B0044674
:1045E0000D46012301AA6221FFF7FAFE9DF804306F
:1045F00065F304138DF80430012301AA62212046DB
:10460000FFF7F3FE03B030BD08B506230A46682164
:10461000FFF7E6FE08BD08B501230A460F21FFF7A4
:10462000DFFE08BD08B501230A462721FFF7D8FEA3
:1046300008BD08B501230A464F21FFF7D1FE08BD8A
:1046400030B583B004460D46012301AA6021FFF76F
:10465000C7FE9DF8043065F345138DF8043001233F
:1046600001AA60212046FFF7C0FE03B030BD10B59F
:1046700082B00C46012301AA6021FFF7B1FE9DF82C
:104680000430C3F34013237002B010BD08B50123FA
:104690000A466721FFF7A4FE08BD000010B584B0EC
:1046A00033280DD04FF6FF7402940193009201233A
:1046B0000A4681B20448FDF741FB002004B010BD5A
:1046C00041F08001EEE700BF0C08002010B584B077
:1046D00033280DD04FF6FF7402940193009201230A
:1046E0000A46C1B20448FDF7E7FB002004B010BD44
:1046F00041F08001EEE700BF0C0800202DE9F04FEB
:104700008BB00024059406940794089409940094AF
:104710005D4B1A6B42F004021A631A6B02F004023A
:104720000092009A01941A6B42F080021A631A6B8D
:1047300002F080020192019A02941A6B42F0010287
:104740001A631A6B02F001020292029A03941A6B26
:1047500042F002021A631A6B02F002020392039AF9
:1047600004941A6B42F008021A631B6B03F00803EF
:104770000493049B454D224642F201012846FCF772
:10478000DBFE434F224604213846FCF7D5FE4FF4AA
:10479000005305934FF01108CDF818800794089442
:1047A00005A92846FCF7F6FD012305930693079318
:1047B000089305A92846FCF7EDFD02230593354E25
:1047C0000696079405A92846FCF7E4FD50230593B7
:1047D000DFF8CCA0CDF818A0079405A92846FCF76F
:1047E000D9FD4FF4226305934FF0030BCDF818B0B9
:1047F000079405A92846FCF7CDFD212305930696CD
:104800000794254E05A93046FCF7C4FD4FF0040976
:10481000CDF81490CDF818B0079405A93046FCF7F0
:10482000B9FD4FF440430593CDF818A0079405A9AE
:104830003046FCF7AFFD4FF4807ACDF814A0069413
:10484000079405A92846FCF7A5FDCDF814A0069409
:10485000079405A91148FCF79DFDCDF81490CDF8FB
:1048600018800794089405A93846FCF793FD4FF487
:10487000887305930694079405A93046FCF78AFDD2
:104880000BB0BDE8F08F00BF0038024000080240C6
:10489000000C024000002110000402400000024011
:1048A0000000111008B50948094B03604FF4E133CB
:1048B000436000238360C36003610C2242614FF4B4
:1048C00040728261C361FFF7A4F908BD100900209E
:1048D0000044004008B50948094B03604FF4E13338
:1048E000436000238360C36003610C2242614FF484
:1048F00040728261C361FFF78CF908BDA4060020F5
:104900000010014008B50948094B03604FF40072DC
:10491000426000238360C36002614FF4FA52426137
:104920008361C3610362FEF7A7F808BD5009002048
:10493000003C004070B584B00025009501950295BB
:1049400003950E4C0E4B23606560A5602561A56143
:104950002562E5620B4BA362E5600126E6612563F3
:1049600066612046FCF7A6FB05230093019602959D
:1049700069462046FCF7C8FB04B070BD6008002003
:10498000002001400100000F08B50948094B0360F1
:10499000002343608360C3600361436183610362FA
:1049A000436283620A23C362FEF728FF08BD00BF8B
:1049B000B80800200030014008B50B480B4B0360DD
:1049C0004FF48273436000238360C36003614361DB
:1049D0004FF480228261C3610362436283620A23CF
:1049E000C362FEF70BFF08BD6007002000380040DF
:1049F00008B50948094B0360094B436000238360F5
:104A0000C3604FF48042026143618361C36103620A
:104A1000FDF706F908BD00BFB807002000540040AC
:104A2000A086010008B50948094B0360094B4360A3
:104A300000238360C3604FF480420261436183615D
:104A4000C3610362FDF7ECF808BD00BF0C0800204D
:104A500000580040A086010030B59BB030220021F4
:104A60000EA800F01EFD002409940A940B940C94E7
:104A70000D94039404940594069407940894214B90
:104A80005A6822F03F0242F010025A605A6842F41B
:104A900080025A6001941A6C42F080521A641B6CB6
:104AA00003F080530193019B0294174B1A6842F460
:104AB00040421A601B6803F440430293029B0125A5
:104AC0000E954FF480330F9314944FF48003159395
:104AD0000EA8FEF7ADFA0F2309930A950B940C94D8
:104AE0000D94214609A8FEF7C3FC0395C023059346
:104AF000102304930223069303A8FEF78BFD1BB03B
:104B000030BD00BF003802400070004010B584B0D6
:104B100008480088490089B24FF4FA640294BDF84D
:104B200018400194009303460348FDF7C5F904B00B
:104B300010BD00BF08000020B807002010B584B0E9
:104B400008480088490089B24FF4FA640294BDF81D
:104B500018400194009303460348FDF7EFF804B0B2
:104B600010BD00BF08000020B807002008B54FF4B2
:104B70007A730A4601460248FFF77AF808BD00BF7B
:104B8000A4060020F0B52DED028B8DB0FCF7BAF92C
:104B9000FFF762FFFFF7B2FDFFF784FEFFF7B2FEFB
:104BA000FFF7C8FEFFF7F0FEFFF794FEFFF720FFC8
:104BB000FFF738FFFFF700FFBD4C00236370282389
:104BC000A3700125BB4B1D602A464FF40051BA4823
:104BD000FCF7B2FCA178607800950BAB2F22FFF7B1
:104BE00095FF9DF82C30212B00F041810020FFF72C
:104BF00047F90020FFF74EFB0020FFF7CDF940F208
:104C0000DC5342F6E06202210020FFF703FB40F292
:104C1000DC5343F6982203210020FFF7FBFA002023
:104C2000FFF74EF90020FFF7B7F9A44A0892A44B0A
:104C3000099333210A91059206933D230793A14DD1
:104C40004FF0FF3602960124019400270097234677
:104C5000602232212846FDF771F8029601940094F3
:104C60002346622232212846FDF768F80296019415
:104C7000572300932346202232212846FDF75EF871
:104C8000914C2770214608A8FFF7C5FC2278332AEB
:104C900040F0F4808C4C00232370214605A8FFF7D8
:104CA000C8FC2278402A40F0F680012105A8FFF7D1
:104CB000C7FC854C04F57B7105A8FFF7D8FC94F878
:104CC000EC33002BF5D1012108A8FFF70CFC0121E2
:104CD00005A8FFF782FC022108A8FFF7D6FB0021F8
:104CE00005A8FFF735FC002108A8FFF7E5FB012127
:104CF00005A8FFF75BFC012105A8FFF740FC002198
:104D000008A8FFF777FB002108A8FFF78AFB00211E
:104D100005A8FFF706FC4FF4FA70FCF71FF94FF6F1
:104D2000FF73029301230193002600960F22322184
:104D30006448FDF7C1F8644D2C1D32466349204696
:104D400001F014F82046FBF799FF81B22046FFF7E7
:104D50000DFF04A908A8FFF765FC05F57C71C5F8EF
:104D6000F0638E8008A8FFF7D5FBB5F9F0030011BA
:104D7000B5F9F2331B1107EE903AB8EEE78AB5F9B0
:104D8000F4331B1107EE903AF8EEE78A07EE900A2B
:104D9000F8EEE77A17EE900AFBF786FB06460F4619
:104DA00018EE900AFBF780FBCDE9020118EE100A1D
:104DB000FBF77AFBCDE9000132463B4644492046E9
:104DC00000F0D4FF2046FBF759FF81B22046FFF7E1
:104DD000CDFE04A905A8FFF759FC9DF8103013F08B
:104DE000080F98D02C4605F57E710023C5F8F833DE
:104DF0008B8005A8FFF708FCB5F9F83307EE103AE9
:104E0000B8EEC77AF7EE087AB5F9FA3308EE103A39
:104E1000B8EEC88A28EE278AB5F9FC3308EE903A36
:104E2000F8EEE88A68EEA78A67EE277A17EE900A0E
:104E3000FBF73AFB06460F46043418EE900AFBF7E0
:104E400033FBCDE9020118EE100AFBF72DFBCDE98B
:104E5000000132463B461F49204600F087FF2046AE
:104E6000FBF70CFF81B22046FFF780FE53E70022DC
:104E70004FF400511048FCF75FFBB7E604341649C5
:104E8000204600F073FF2046FBF7F8FE81B2204673
:104E9000FFF76CFEFEE604341049204600F066FF82
:104EA0002046FBF7EBFE81B22046FFF75FFEFCE6F3
:104EB000AC08002008000020000802409D460008C1
:104EC000CD4600080C08002094020020B0770008AE
:104ED000C4770008EC770008707700089077000826
:104EE00082B0002100910B4B5A6C42F480425A640C
:104EF0005A6C02F480420092009A01911A6C42F0BE
:104F000080521A641B6C03F080530193019B02B022
:104F1000704700BF0038024030B589B000230393CA
:104F20000493059306930793026803F1804303F506
:104F300090339A4201D009B030BD0024009403F5AB
:104F40008C335A6C42F480725A645A6C02F4807248
:104F50000092009A01941A6B42F001021A631A6BD4
:104F600002F001020192019A02941A6B42F00202CD
:104F70001A631B6B03F002030293029B202303932B
:104F80000325049503A90648FCF704FA02230393BA
:104F90000495059403A90348FCF7FCF9CBE700BF8F
:104FA00000000240000402402DE9F0438BB00023D2
:104FB0000593069307930893099303683B4A93422A
:104FC00005D03B4A93422FD00BB0BDE8F0830025BB
:104FD0000195384C236B43F002032363236B03F0EA
:104FE00002030193019BC02305931223069301231F
:104FF0000793032308930423099305A92E48FCF77C
:10500000C9F90295236C43F400132364236C03F461
:1050100000130293029B2A4629461F20FCF750F9F1
:105020001F20FCF781F9CFE700250395214C236B66
:1050300043F002032363236B03F002030393039BF8
:105040004FF4806305934FF01209CDF818904FF09C
:105050000108CDF81C800327089704230993164EF6
:1050600005A93046FCF796F94FF400730593CDF887
:105070001890CDF81C8008970923099305A930469C
:10508000FCF788F90495236C43F480032364236CB4
:1050900003F480030493049B2A4629462120FCF74D
:1050A0000FF92120FCF740F98EE700BF00540040C3
:1050B00000580040003802400004024070B588B03B
:1050C00000230393049305930693079302681E4BF2
:1050D0009A4201D008B070BD0024009403F5FE335D
:1050E0001A6C42F400421A641A6C02F400420092F4
:1050F000009A01941A6B42F001021A631A6B02F0D3
:1051000001020192019A02941A6B42F004021A639E
:105110001B6B03F004030293029B102303930226EC
:1051200004960625079503A90848FCF733F94FF4C0
:10513000A4530393049605940694079503A9044881
:10514000FCF728F9C6E700BF003C00400000024021
:1051500000080240F0B58DB000230793089309932F
:105160000A930B9303683C4A934204D03B4A934210
:1051700039D00DB0F0BD00240194394B5A6C42F483
:1051800080525A645A6C02F480520192019A02943D
:105190001A6B42F001021A631A6B02F001020292CA
:1051A000029A03941A6B42F002021A631B6B03F01B
:1051B00002030393039B48F2C00307930227089757
:1051C00003260A9605250B9507A92648FCF7E2F861
:1051D00008230793089709940A960B9507A9224874
:1051E000FCF7D8F8C5E7002404941D4B1A6C42F470
:1051F00080421A641A6C02F480420492049A059464
:105200001A6B42F004021A631A6B02F00402059250
:10521000059A06941A6B42F002021A631B6B03F0A4
:1052200002030693069B0C23079302270897032685
:105230000A9605250B9507A90C48FCF7ABF84FF427
:1052400040530793089709940A960B9507A90648B7
:10525000FCF7A0F88DE700BF0030014000380040A7
:1052600000380240000002400004024000080240F2
:105270002DE9F0418AB00023059306930793089324
:1052800009930368354A934205D0354A934237D093
:105290000AB0BDE8F08100240194324B5A6C42F010
:1052A00010025A645A6C02F010020192019A0294A0
:1052B0001A6B42F001021A631B6B03F001030293A5
:1052C000029B4FF4C06305934FF00208CDF818809D
:1052D000012307930327089707260996224D05A95E
:1052E0002846FCF757F84FF4C0530593CDF81880C3
:1052F00007940897099605A92846FCF74BF8C7E7D5
:1053000000210391174B1A6C42F400321A641A6C94
:1053100002F400320392039A04911A6B42F00102E4
:105320001A631B6B03F001030493049B032405948D
:10533000022706970894072609960B4D05A92846CB
:10534000FCF728F80C23059306970123079308948C
:10535000099605A92846FCF71DF899E700100140B9
:105360000044004000380240000002407047FEE761
:10537000FEE7FEE7FEE770477047704708B5FBF7AA
:10538000DBFD08BD08B50248FDF758FA08BD00BFAF
:10539000B807002008B50248FDF750FA08BD00BF65
:1053A0000C0800200F49D1F8883043F47003C1F88D
:1053B00088300D4B1A6842F001021A600020986094
:1053C0001A6822F0847222F480321A60074A5A6006
:1053D0001A6822F480221A60D8604FF000638B6054
:1053E000704700BF00ED00E000380240103000249C
:1053F000DFF834D0002103E00C4B5B5843500431FC
:105400000B480C4B42189A42F6D30B4A02E0002399
:1054100042F8043B094B9A42F9D3FFF7C3FF00F06F
:1054200011F8FFF7AFFB704700000220E07A000898
:1054300000000020E0010020E00100209C09002085
:10544000FEE7000070B50D4E0D4CA41BA410002506
:10545000A54209D10B4E0C4C02F06EF8A41BA4100F
:105460000025A54205D170BD56F825309847013575
:10547000EEE756F8253098470135F2E7D87A00086C
:10548000D87A0008D87A0008DC7A000810B5431EE4
:105490000A44914200D110BD11F8014B03F8014FAD
:1054A000F7E702440346934200D1704703F8011B1B
:1054B000F9E72DE9FF4755EC104B0D9FDDF830A0C3
:1054C000002D0E4691461946B8BF22462B4627F0BE
:1054D0002007BBBF05F100431D4600232D23B8BFA5
:1054E0001446462F0B7004D0452F00D101360221FF
:1054F00000E0032103AB019302AB00933246534615
:1055000045EC104B00F0E0FC472F804602D119F02B
:10551000010F26D0462F08EB060911D198F800306C
:10552000302B0AD10022002320462946FBF756FCE7
:1055300018B9C6F10106CAF80060DAF800309944DB
:105540000022002320462946FBF748FC38B93022C8
:10555000039B4B4505D2591C03911A70F8E7CDF80F
:105560000C90039B0E9AA3EB08034046136004B013
:10557000BDE8F087F7B500290446BABF49422D239C
:105580002B23092904F8022B437020DD0DF10703BA
:105590001F460A2691FBF6F506FB15113031092D41
:1055A00003F8011C03F1FF32294609DC3031023BCC
:1055B00002F8011CBB42224604D3101A03B0F0BD0E
:1055C0001346E7E713F8012B04F8012BF2E7302329
:1055D00019448370021DC170EFE700002DE9F04F00
:1055E0008DB00C46DDF8588016461F46054601F082
:1055F00023FA036804931846FBF740FB00230A9341
:10560000D8F800300590073323F0070303F10802B0
:1056100094F818A0D4F800B0C8F80020D3E900230B
:10562000C4E91223D4E9128929F000430793CDF885
:1056300018804FF0FF32A74BDDE90601FBF700FCB5
:1056400070BB4FF0FF32A34BDDE90601FBF7DAFB3D
:1056500030BB0022002340464946FBF7C9FB10B18E
:105660002D2384F843309C4A9C4BBAF1470F8CBFE2
:105670009046984603232BF00402236122604FF0EA
:105680000009009733460BAA2146284600F0E6F9A8
:10569000013040F08D804FF0FF300DB0BDE8F08F4D
:1056A00042464B4640464946FBF7CAFB10B18C4A7E
:1056B0008C4BDAE761684B1C4BF480620AA83ED140
:1056C000062363600023CDE9020309AB009349EC94
:1056D000108B0DF123032260CDF804A061682846E9
:1056E000FFF7E7FE0AF0DF03472B804609D1099B4D
:1056F000D81C02DB6268934247DDAAF1020A5FFA16
:105700008AFABAF1650F099924D80139524604F191
:1057100050000991FFF72EFF0A9A1318012A8146BB
:10572000236102DC2268D10701D5013323619DF892
:105730002330002BA5D02D2384F84330A1E7BAF104
:10574000670F00F07781BAF1470FBBD10029B9D1BB
:105750000123B6E7BAF1660F19D1002963680CDDA1
:10576000216113B92268D20702D501330B442361AA
:10577000099BA3654FF00009D9E713B92268D00748
:1057800001D50233F3E70123F1E74FF0670ADDE9C2
:105790000932934205DB22682361D107E8D5013342
:1057A000E5E7002BD4BFC3F1020301231344DEE776
:1057B00023685A0507D42369424631462846B8472C
:1057C00001302BD167E7BAF1650F40F2DC8000228F
:1057D0000023D4E91201FBF701FB002833D0012399
:1057E000414A31462846B84701303FF454AFDDE91D
:1057F00009239A4202DB2368D8070FD5DDE9042389
:1058000031462846B84701303FF445AF4FF0000815
:1058100004F11A090A9B013B434509DC23689B07F5
:1058200000F10381E0680B9B9842B8BF184634E74B
:1058300001234A4631462846B84701303FF42BAF92
:1058400008F10108E6E7099B002B2BDC0123264A1F
:1058500031462846B84701303FF41DAF099B23B9B4
:105860000A9B13B92368D907D8D5DDE9042331464B
:105870002846B84701303FF40EAF4FF0000904F15D
:105880001A0A099B5B424B4501DC0A9B94E7012302
:10589000524631462846B84701303FF4FCAE09F184
:1058A0000109EEE70A9AA36D9A42A8BF1A46002A98
:1058B000914607DD1346314642462846B847013037
:1058C0003FF4E9AE04F11A034FF0000B29EAE9793D
:1058D000069315E0FFFFEF7F1878000814780008A2
:1058E000207800081C780008247800080123069A14
:1058F00031462846B84701303FF4CDAE0BF1010BDD
:10590000D4F858A0AAEB09035B45EFDCDDE90923D5
:105910009A42D04415DB2368DA0712D40A9B09990E
:10592000A3EB0A02A3EB010A9245A8BF9246BAF183
:10593000000F0EDC4FF000082AEAEA7A04F11A0997
:1059400019E0DDE9042331462846B8470130E5D1A6
:10595000A1E65346424631462846B8470130E9D1D0
:1059600099E601234A4631462846B84701303FF4BC
:1059700092AE08F10108DDE909239B1AA3EB0A03A3
:105980004345EEDC4AE70A9A012A01DCDB073AD5F7
:105990000123424631462846B84701303FF47BAEEA
:1059A000DDE9042331462846B847013008F10108F3
:1059B0003FF471AE0A9B002203F1FF3AD4E91201D1
:1059C0000023FBF70BFAC8B9534642463146284636
:1059D000B84701300ED15EE60123524631462846D3
:1059E000B84701303FF457AE08F101080A9B013B6C
:1059F0004345F1DC4B4604F15002DEE64FF000086F
:105A000004F11A0AF2E70123DFE701234A4631468F
:105A10002846B84701303FF43EAE08F10108E3687C
:105A20000B9A9B1A4345F0DCFCE64FF0000804F1AA
:105A30001909F4E700293FF48BAE0023CDE90203F6
:105A400009AB009349EC108B2260CDF804A00DF156
:105A500023032846FFF72DFD804648E62DE9F04751
:105A600091461F468A680B69DDF820809342B8BFD3
:105A70001346C9F8003091F8432006460C4612B18F
:105A80000133C9F800302368990642BFD9F80030C5
:105A90000233C9F80030256815F0060507D104F176
:105AA000190AE368D9F800209B1AAB4228DC94F865
:105AB00043302268003318BF012392062DD404F12D
:105AC000430239463046C047013020D02368E5689C
:105AD000D9F8002003F00603042B08BFAD1AA36811
